:1000000080313428080008007E1480318B1E0928B6
:100010000A2812280B1D0D280E2812288F3154276C
:10002000803132280B1F1528162832282100911CF8
:100030001A281B2824282000911C1F282028242847
:100040008E31FB26803132282100111F28282928D3
:1000500032282000111F2D282E2832288F311727F3
:10006000803132287E100900803136282000E601D8
:10007000E701E801E901EA01EB01EC012100A0013F
:10008000A101A201A301A401A501A601A7017E105F
:1000900020008431302C200023088039A80023352B
:1000A000AE00A21F5428552856282E142E080319D6
:1000B0005A285B286A282E0A031D5F2860286828B2
:1000C0000030A3000030A2000030A1000030A000EA
:1000D000A21772280030A3000030A2000030A10057
:1000E0000030A00027088039F9007908A8062735D4
:1000F000AD00A61F7C287D287E282D142D0803190D
:100100008228832892282D0A031D87288828902872
:100110000030A7000030A6000030A5000030A40089
:10012000A6179A280030A7000030A6000030A500CE
:100130000030A4002D0803199E289F28A4282E080B
:10014000031DA328A428AD280030A3000030A2007E
:100150000030A1000030A000852A2008F000260809
:100160008731AB27803171082000B4007008B300DC
:100170003308F900FA01FB01FC017C08AC007B08A4
:10018000AB007A08AA007908A9003408F900FA013E
:10019000FB01FC017C08B2007B08B1007A08B000CA
:1001A0007908AF002108F00025088731AB2780319E
:1001B00071082000B4007008B3003308F900FA0198
:1001C000FB01FC017908A9077A08AA3D7B08AB3D31
:1001D0007C08AC3D3408F900FA01FB01FC01790808
:1001E000AF077A08B03D7B08B13D7C08B23D2208DC
:1001F000F00024088731AB27803171082000B4005B
:100200007008B3003308F900FA01FB01FC0179081A
:10021000A9077A08AA3D7B08AB3D7C08AC3D3408B1
:10022000F900FA01FB01FC017908AF077A08B03D3B
:100230007B08B13D7C08B23D0830A935AA0DAB0D55
:10024000AC0D890B1D292108F00024088731AB274C
:10025000803171082000B4007008B3003308A9078A
:100260003408AA3D0030AB3DAC3D2008F000250825
:100270008731AB27803171082000B4007008B300CB
:100280003308A9073408AA3D0030AB3DAC3D083027
:10029000A935AA0DAB0DAC0D890B48292008F0003B
:1002A00024088731AB27803171082000B400700822
:1002B000B3003308A9073408AA3D0030AB3DAC3D7C
:1002C0002108F00026088731AB2780317108200013
:1002D000B4007008B3003308AF073408B03D0030F5
:1002E000B13DB23D2208F00025088731AB278031AF
:1002F00071082000B4007008B3003308AF07340859
:10030000B03D0030B13DB23D2208F00026088731F3
:10031000AB27803171082000B4007008B3003308A7
:10032000F9003408FA00FB01FC010830F935FA0D38
:10033000FB0DFC0D890B96297908AF077A08B03DB3
:100340007B08B13D7C08B23D2908F9002A08FA0073
:100350002B08FB002C08FC001830FC36FB0CFA0CB8
:10036000F90C890BAD297908AF077A08B03D7B08F5
:10037000B13D7C08B23D0830A935AA0DAB0DAC0DDE
:10038000890BBC292E082D07F900FA01FA0D79080E
:10039000823EB300FF307A3DB400E5290130AF352D
:1003A000B00DB10DB20D890BCF29AC1FD829D929B9
:1003B000DA292F140130A935AA0DAB0DAC0D890B2C
:1003C000DB29FF30B307FF30B43DB11FE829E9292D
:1003D000CE29AD01AC1FED29EE290A2AFF302905EF
:1003E000F900FF302A05FA00FF302B05FB007F30B3
:1003F0002C05FC007C087B047A0479040319012A8B
:10040000022A052AAD01AD0A0A2A2F1C082A092A48
:100410000A2A022A2D0803190E2A0F2A372A013028
:10042000AF070030B03D0030B13D0030B23D321C6E
:100430001A2A1B2A372A2F08F9003008FA00310837
:10044000FB003208FC000130FD00FC37FB0CFA0C0D
:10045000F90CFD0B252A7C08B2007B08B1007A0854
:10046000B0007908AF000130B3070030B43D340864
:10047000803AF90080307902031D402AFF303302B0
:10048000031C432A442A4E2A7F302000B2008030C9
:10049000B1000030B0000030AF00792A20003408ED
:1004A000803AF90080307902031D582A0130330266
:1004B00003185B2A5C2A672A00302000B200003053
:1004C000B1000030B0000030AF00A801792A200050
:1004D0003308AE00FF30AF05FF30B0057F30B10507
:1004E0000030B2052E1C752A762A772AB1172E36CF
:1004F000B2002808F9007908B2043208A3003108D4
:10050000A2003008A1002F08A00008007708803959
:100510002000A4007735AB00F61F8F2A902A912A7D
:100520002B142B080319952A962AA62A2B0A031D99
:100530009A2A9B2AA32A0030F7000030F6000030E8
:10054000F5000030F400F617F701AE2A0030F7008E
:100550000030F6000030F5000030F40073088039F8
:10056000F8007808A4067335AC00F21FB82AB92A3F
:10057000BA2A2C142C080319BE2ABF2ACF2A2C0A07
:10058000031DC32AC42ACC2A0030F3000030F20035
:100590000030F1000030F000F217F301D72A0030EC
:1005A000F3000030F2000030F1000030F00073087A
:1005B000720471047004031DDE2ADF2AF82A003059
:1005C000F7000030F6000030F5000030F400803015
:1005D000F6047F30F7042408F8007808F704770859
:1005E000F3007608F2007508F1007408F0002F2C73
:1005F0002B08031DFC2AFD2A062B0030F3000030D7
:10060000F2000030F1000030F0002F2C2B08F80031
:10061000F9017908FB002C087802FA00031CFB039F
:100620007A087F3EA50000307B3DA6007708A30036
:100630007608A2007508A1007408A0000030F70039
:100640000030F6000030F5000030F4000030AA0061
:100650000030A9000030A8000030A700AC016E2BCC
:100660002C080319342B352B4F2B0130A035A10D4D
:10067000A20DA30D890B362B0130F435F50DF60DC7
:10068000F70D890B3D2BAA1F462B472B482B7414C3
:100690000130A735A80DA90DAA0D890B492B7308A8
:1006A0002302031D5D2B72082202031D5D2B7108BE
:1006B0002102031D5D2B70082002031C602B612B9F
:1006C0006A2B2A177008A0027108A13B7208A23B8E
:1006D0007308A33B0130F8007808AC071A302C02ED
:1006E000031C732B742B302B2308220421042004B9
:1006F00003197B2B7C2B952B2714952B0130F4357C
:10070000F50DF60DF70D890B7F2BAA1F882B892B72
:100710008A2B74140130A735A80DA90DAA0D890BD9
:100720008B2BFF30A507FF30A63DF61F982B992B8A
:100730007E2BAC01AA1F9D2B9E2BBA2BFF302705C9
:10074000F800FF302805F900FF302905FA007F3056
:100750002A05FB007B087A04790478040319B12B7D
:10076000B22BB52BAC01AC0ABA2B741CB82BB92B2D
:10077000BA2BB22B2C080319BE2BBF2BE72B013051
:10078000F4070030F53D0030F63D0030F73D771CB2
:10079000CA2BCB2BE72B7408F8007508F9007608F4
:1007A000FA007708FB000130FC00FB37FA0CF90C6B
:1007B000F80CFC0BD52B7B08F7007A08F6007908BB
:1007C000F5007808F4000130A5070030A63D2608A2
:1007D000803AF80080307802031DF02BFF302502AC
:1007E000031CF32BF42B012CFF302000A50000305C
:1007F000A6000030F7000030F6000030F5000030B1
:10080000F40020002608803AF80080307802031DAA
:100810000B2C0130250203180E2C0F2C1B2C200052
:10082000A501A6010030F7000030F6000030F50009
:100830000030F400A40120002508AB002B1C212C63
:10084000222C242CF617282C7F30F8007808F60587
:100850002B36F7002408F8007808F704EF2A080080
:100860008F319C2784318B170B178E31D226843120
:1008700000308F316527843100308F312627843155
:100880004030F3004C30F200CC30F100CD30F000BD
:100890008E31DA26843103302000E4000030E50098
:1008A0008731ED27843170082000D5007108D6000B
:1008B0007208D7007308D8007408D9007508DA00E8
:1008C0007608DB007708DC0087310E2784312000B2
:1008D0003808D4003708D3003608D2003508D100D4
:1008E0003E30F300BD30F200A130F1002F30F000B7
:1008F0005408F7005308F6005208F5005108F400B8
:1009000082318622843173082000E3007208E200FD
:100910007108E1007008E000432D8E31AE2684316D
:100920002000E401E501642C8E31A62684312000EC
:10093000DF005F08031D9D2C9E2CA32C0A30DD00D8
:100940000030DE00A72C6130DD000030DE005E08E4
:10095000A3005D08A20086318D2684313F30F3006C
:10096000CC30F200CC30F100CD30F0002000630834
:10097000F7006208F6006108F5006008F4008631AF
:10098000032684310318C52CC62C642C03302000A8
:10099000E4000030E500642C0030A200A3008631A2
:1009A0008D26843102302000E4000030E500642C04
:1009B0008731ED278431200055087002C9005608A0
:1009C000713BCA005708723BCB005808733BCC0000
:1009D0005908743BCD005A08753BCE005B08763B46
:1009E000CF005C08773BD0005008031D0E2D4F0848
:1009F000031D0E2D4E08031D0E2D4D08031D0E2D3B
:100A00004C08031D0E2D4B08031D0E2DF530490219
:100A100001304A3B031C0D2D0E2D252D8F3109274A
:100A200084318731ED27843170082000D5007108AA
:100A3000D6007208D7007308D8007408D90075086A
:100A4000DA007608DB007708DC0020006308F3009A
:100A50006208F2006108F1006008F0003F30F70022
:100A60004C30F600CC30F500CD30F4008631032652
:100A7000843103183C2D3D2D642C01302000E4000E
:100A80000030E500642C6508003A0319482D642CF9
:100A90006408003A0319942C013A03198D2C033A87
:100AA0000319D82C013A0319CC2C642C803134283A
:100AB0002000A000200803195E2D5F2D732DF71F65
:100AC000622D632D732D7409A2007509A3007609A8
:100AD000A4007709A500A20A0319A30A0319A40A0E
:100AE0000319A50A7B2D7708A5007608A4007508D0
:100AF000A3007408A2007708760475047404031D2B
:100B0000822D832D8C2D0030F7000030F600003050
:100B1000F5000030F400022E9630A1009A2D01302D
:100B2000F8007808A1070130A536A40CA30CA20C8C
:100B3000890B942DFE302505031D9F2DA02D8F2D93
:100B4000B42D0130F8007808A1070130A207003069
:100B5000A33D0030A43D0030A53D0130A536A40CD6
:100B6000A30CA20C890BAE2DFF302505031DB92D5A
:100B7000BA2DA12DC42D0130A1020130A235A30D43
:100B8000A40DA50D890BBE2DA41BC72DC82DCE2DE0
:100B9000023021020318CD2DCE2DBB2D2118D12DD1
:100BA000D22DDA2DFF30A205FF30A3057F30A4053A
:100BB000FF30A5050310A10C2108F800F901FA0186
:100BC000FB011830F835F90DFA0DFB0D890BE22DFC
:100BD0007808A2047908A3047A08A4047B08A50471
:100BE00020080319F42DF52DFA2DF71FF82DF92DF6
:100BF000FA2DA5172508F7002408F6002308F500AC
:100C00002208F400080000307005F800003071057B
:100C1000F90080307205FA007F307305FB007B0815
:100C20007A0479047804031D162E172E1F2E003027
:100C3000F3000030F2000030F1000030F00000302E
:100C40007405F80000307505F90080307605FA006B
:100C50007F307705FB007B087A0479047804031D54
:100C6000322E332E3B2E0030F7000030F6000030DD
:100C7000F5000030F400F31F3E2E3F2E572E0030BB
:100C8000F8000030F9000030FA008030FB007008F6
:100C9000F8027108F93B7208FA3B7308FB3B7B08CA
:100CA000F3007A08F2007908F1007808F000F71FE5
:100CB0005A2E5B2E732E0030F8000030F900003001
:100CC000FA008030FB007408F8027508F93B7608DA
:100CD000FA3B7708FB3B7B08F7007A08F6007908B7
:100CE000F5007808F4008030F3068030F7067708C6
:100CF0007302031D852E76087202031D852E75086A
:100D00007102031D852E740870020318882E892E27
:100D10008B2E03108C2E0314080020002308A10042
:100D20002208A0008F31E327863120002108B0007F
:100D30002008AF0030086B02031DA02E2F086A02A6
:100D40000318A32EA42EC62E6A08013EAD00003063
:100D50006B3DAE00BB2E2E08F1002D08F0008F3148
:100D6000B2278631C8300032890BB32E0130200003
:100D7000AD070030AE3D2E083002031DC12E2D08F8
:100D80002F020318C42EC52EAB2E092F6B0830027C
:100D9000031DCC2E6A082F020318CF2ED02E092F48
:100DA0006A08FF3EA900FF306B3DAA00AB01AC0111
:100DB000ED2E2A08F1002908F0008F31B227863184
:100DC000C8300032890BE12EFF302000A907FF3028
:100DD000AA3DFF30AB3DFF30AC3D2F08A4003008EA
:100DE000A500A601A7012C08803AA8002708803A90
:100DF0002802031D052F26082B02031D052F250899
:100E00002A02031D052F240829020318082F092F81
:100E1000D92E3008EB002F08EA00080003308F318C
:100E2000C927873170082000B9007108BA00BB01DA
:100E3000BC013C08F7003B08F6003A08F500390809
:100E4000F400003085315825873177082000C00034
:100E50007608BF007508BE007408BD004730C400A6
:100E60007F30C300FF30C2000030C1004408F300EF
:100E70004308F2004208F1004108F0006908F70059
:100E80006808F6006708F5006608F40082318622DB
:100E9000873173082000C8007208C7007108C600B7
:100EA0007008C5004808A3004708A2004608A10032
:100EB0004508A0004008A7003F08A6003E08A5007E
:100EC0003D08A40080314B20873120002308B80062
:100ED0002208B7002108B6002008B5000800FB0171
:100EE000FC01760877040319762F772FA62FFD01D2
:100EF000FD0A832F0130F635F70D890B7B2F01306A
:100F0000FA007A08FD07F71F862F872F7A2F013006
:100F1000FB35FC0D890B882F77087902031D922F72
:100F200076087802031C952F962F9B2F7608F802DF
:100F30007708F93B7B140130F736F60C890B9C2FB0
:100F40000130FD02031DA52FA62F872F7C08F70077
:100F50007B08F6000800F800F401F5017008F200C3
:100F6000F3017208F6007308F700781CB82FB92F48
:100F7000BD2F7608F4077708F53D0130F635F70DFB
:100F8000890BBE2F0310F80C7808031DC82FC92F3A
:100F9000B52F7508F1007408F0000800F401F501A0
:100FA000701CD32FD42FD82F7208F4077308F53D87
:100FB0000130F235F30D890BD92F0130F136F00CE9
:100FC000890BDE2F70087104031DE72FE82FD02F47
:100FD0007508F1007408F000080021002008F000F6
:100FE0002108F1002208F2002308F3002408F4008D
:100FF0002508F5002608F6002708F7000800080075
:101D4C0020000C0C01390800163021009700080007
:101D5C0022008C122000EC01080022008C162000BE
:101D6C00EC01EC0A080071082100AB007008AA0015
:101D7C00080071082100A9007008A800080071086B
:101D8C002000EE007008ED0008006830210099007A
:101D9C009801220096010800EF30F0000E30F1009F
:101DAC008E31BF268E31080073082000E9007208BE
:101DBC00E8007108E7007008E60008000C30250008
:101DCC0093009501803094000130960092019101AE
:101DDC00080001302100A0070030A13DA23DA33D29
:101DEC00A43DA53DA63DA73D0800200091106D081F
:101DFC006E040319022F032F082F6E088A006D083A
:101E0C000A008F31080020006C0803190E2F0F2FC9
:101E1C00132F8E31AE268F31162F8E31B3268F3184
:101E2C0008002000111321002A082B0403191F2F6E
:101E3C00202F252F2B088A002A080A008F31080032
:101E4C00F000700803192B2F2C2F2F2F22008C162B
:101E5C00312F22008C1270082000EC0008002200A8
:101E6C008C011B3021008C00103023008C002400CE
:101E7C008C012100951722009D0108007030210073
:101E8C009E009B019C0101309D0011170230F00057
:101E9C000030F1008E31B9268F3108000B11200073
:101EAC006F08950021002808290403195E2F5F2F65
:101EBC00642F29088A0028080A008F3108002000A6
:101ECC00B3008E31E4268F3120003308B100B2010B
:101EDC003108A2003208A30086318D268F3108000C
:101EEC00653020009B009A01911021009114FF3065
:101EFC00F0000730F1008E31C5268F310430200000
:101F0C009C00080021001508C039113895000630D6
:101F1C00200095000630EF000B118B160330F000FB
:101F2C000030F1008E31BF268F3108008F313527FC
:101F3C008F318E31CB268F318E31AA268F318F3156
:101F4C0044278F318E31E4268F318F3176278F31B4
:101F5C008F3188278F3108007108F3007008F20068
:101F6C00F336F20CF336F20C72082500910070086F
:101F7C000339F2000430F235890BC12F1308CF3925
:101F8C00720493000800F3007308F200F20DF20DD6
:101F9C0021001D087206833972069D001D14003243
:101FAC000032000021009D149D18DD2FDE2FDA2F4A
:101FBC001C08F1001B08F00008006430F60000302B
:101FCC00F70020002108F1002008F0009F30F200FB
:101FDC000130F3008731CE278F317108F90070087A
:101FEC00F80087316F278F3177082000A100760821
:041FFC00A000080039
:020000040001F9
:08000000FF3FFF3FFF3FFF3F00
:04000E00A43FFF1EEE
:00000001FF
